:02000000CE2D03
:08000800FF00030E8312031335
:10001000DE000A0EDF00040EE0008A110A124B2EE9
:100020000330F707F70CF70C7F30F7050000F70BEC
:1000300016280800F608031D1E280800F930FF3EA8
:10004000031D1F280000F60B1E2808003C308312F9
:1000500003138100EA0A12306A020318EA018313CB
:10006000203084006A08840700188714001C871059
:100070000B110800AF01B001B101B201B301AF1A19
:1000800008002B1C51282708B00728080318280F40
:10009000B10729080318290FB2072A0803182A0FE5
:1000A000B3070310AE0CAD0CAC0CAB0C0310A70DDA
:1000B000A80DA90DAA0DAF0A3F28A701A801A90103
:1000C000AA01AD01AE01AF01B001AB0120302B059B
:1000D000AC00AC08031D08000310AD0DAE0DAF0D54
:1000E000B00DFA0DFB0DFC0DFD0DA70DA80DA90D12
:1000F000AA0D23082A02031D872822082902031DAE
:10010000872821082802031D872820082702031CAE
:1001100098282008A7022108031C210FA802220802
:10012000031C220FA9022308031C230FAA022D146B
:10013000AB0A6628831203138C11831611148312E1
:100140008C1D9F288C11D03093008C1DA5288C11FC
:1001500093018C1DA9288C118316111583128C1DF7
:10016000AE288C118C118316111483128C1DB528A6
:100170008C11D13093008C1DBB288C1183169112E9
:10018000A001073020020318E128911583128C1D6D
:10019000C6288C1183137E1883177D0883162007C9
:1001A000840083121308800083162008063A03197E
:1001B0009116111683128C1DDA288C118316A00A51
:1001C000C128111583128C1DE2288C110800F8013A
:1001D000FB01F90108307905FA00FA08031D08004F
:1001E0000310FB0DF60DF80D77087802031CFA28B2
:1001F000F8007B14F90AEA28831203130C1EFC286A
:10020000760899000800831203138C1E03291A082C
:10021000F6000800831203138C1E11290130F6002A
:100220000800F601080083160313071787170C3020
:1002300099002630980090308312980008008312AD
:1002400003131F151F192229F6011E08F700F801D4
:10025000F90183161E08FA00FB01FC01FD017A0872
:10026000F6047B08F7047C08F8047D08F904760896
:10027000A7007708A8007808A9007908AA006430C8
:10028000AB00AC01AD01AE013A203008FA003108F4
:10029000FB003208FC003308FD007A08F6007B08FA
:1002A000F7007C08F8007D08F900F430A700013061
:1002B000A800A901AA017608AB007708AC0078086D
:1002C000AD007908AE003A203008FA003108FB0092
:1002D0003208FC003308FD009C30A0008F30A100E4
:1002E0000130A2000030A3005D202D08FE002E0882
:1002F000A4002F08A5003008A6007E08F6002408F8
:10030000F7002508F8002608F9007608FA0008002A
:100310008316031305148E309F00413083129F0013
:10032000080083120313871083168710811281112E
:10033000073081040800F8018030F90083120313AC
:100340008C118316111483128C1DA3298C11D030AB
:1003500093008C1DA9298C11780893008C1DAE295F
:100360008C11790893008C1DB3298C1183161115FB
:1003700083128C1DB8298C110130F8008313771873
:100380008317760A84000008F9008C118316111473
:1003900083128C1DC8298C11D03093008C1DCE295E
:1003A0008C11780893008C1DD3298C117908930047
:1003B0008C1DD8298C118316111583128C1DDD29F3
:1003C0008C110230F80083137718831776088400A5
:1003D000023084070008F9008C118316111483126F
:1003E0008C1DEF298C11D03093008C1DF5298C11B8
:1003F000780893008C1DFA298C11790893008C1DC4
:10040000FF298C118316111583128C1D042A8C115F
:100410000330F800831377188317760884000330BD
:1004200084070008F9008C118316111483128C1DA7
:10043000162A8C11D03093008C1D1C2A8C11780840
:1004400093008C1D212A8C11790893008C1D262A7B
:100450008C118316111583128C1D2B2A8C110430DC
:10046000F800831377188317760884000430840714
:100470000008F9008C118316111483128C1D3D2A7B
:100480008C11D03093008C1D432A8C117808930076
:100490008C1D482A8C11790893008C1D4D2A8C11D3
:1004A0008316111583128C1D522A8C110530F80009
:1004B00083137718831776088400053084070008B3
:1004C000F9008C118316111483128C1D642A8C116F
:1004D000D03093008C1D6A2A8C11780893008C1DF3
:1004E0006F2A8C11790893008C1D742A8C11831645
:1004F000111583128C1D792A8C110630F800831394
:100500007718831776088400063084070008F900FE
:100510008C118316111483128C1D8B2A8C11D030F0
:1005200093008C1D912A8C11780893008C1D962ABB
:100530008C11790893008C1D9B2A8C118316111540
:1005400083128C1DA02A8C11F8018313771883174E
:10055000760884000008F9008C11831611148312A8
:100560008C1DAF2A8C11D03093008C1DB52A8C11B4
:10057000780893008C1DBA2A8C11790893008C1D81
:10058000BF2A8C118316111583128C1DC42A8C115D
:10059000080083160313871507168514803094000E
:1005A0009101093093002830831294000030FE003E
:1005B0007630FD009A20F61FFB2AFD01FE018C110A
:1005C0008316111483128C1DE22A8C11D0309300F3
:1005D0008C1DE82A8C117D0893008C1DED2A8C114E
:1005E0007E0893008C1DF22A8C118316111583123C
:1005F0008C1DF72A8C110730FD009030FE008C1105
:100600008316111483128C1D022B8C11D030930091
:100610008C1D082B8C117D0893008C1D0D2B8C11CB
:100620007E0893008C1D122B8C11831611158312DA
:100630008C1D172B8C1108007608F7000130F8008C
:10064000F8080319272B8312031306152A2B83128C
:100650000313061186100F3086058615F0307705D6
:10066000860486110F3086058615770EF039F9005D
:10067000F0307905860486114030F700102008001C
:1006800076088038F700F801F80803194B2B83121D
:10069000031306154E2B83120313061186100F3019
:1006A00086058615F0307705860486110F3086059D
:1006B0008615770EF039F900F03079058604861139
:1006C0004030F70010200800831603138712013012
:1006D00086053230F6001A20831206118610861322
:1006E000061386160616861586110130F6001A20A6
:1006F0002C30F600F701F7080319802B0615812B23
:10070000061186100F3086058615F03076058604B2
:1007100086110F3086058615760EF039F800F03018
:100720007805860486110130F6001A202C30F60078
:10073000F701F70803199E2B06159F2B061186104B
:100740000F3086058615F0307605860486110F3049
:1007500086058615760EF039F800F03078058604A7
:1007600086110130F6001A200C30F600F701F70868
:100770000319BC2B0615BD2B061186100F308605FC
:100780008615F0307605860486110F3086058615AD
:10079000760EF039F800F0307805860486110130C5
:1007A000F6001A200130F600F701F7080319DA2BDA
:1007B0000615DB2B061186100F3086058615F030E6
:1007C0007605860486110F3086058615760EF0397B
:1007D000F800F0307805860486110130F6001A2002
:1007E0000630F600F701F7080319F82B0615F92B68
:1007F000061186100F3086058615F03076058604C2
:1008000086110F3086058615760EF039F800F03027
:100810007805860486110130F6001A200800882128
:10082000C9221321912164230B178B178716851C6E
:10083000172C0A21F6080319422C03217608A53A41
:10084000031D422CA530F600FC20F2010730720295
:100850000318342C032183136B308400720884073F
:1008600076088000F20A262C03217608E100032195
:100870007608E2000030F7006B30F6009B21A530CF
:10088000F600FC200030FE006B30FD009A206D0861
:10089000F6000030F8007330F7000030FA007430D2
:1008A000F900760E0F39FB003030FB078313781800
:1008B0008317770884007B0880000F307605FC00E2
:1008C0003030FC0783137A188317790884007C087A
:1008D00080007308303A031D6F2C2030F300F601BE
:1008E00040237308F6001C237408F6001C233A30DA
:1008F000F6001C236C08F6000030F8007330F70097
:100900000030FA007430F900760E0F39FB003030F9
:10091000FB07831378188317770884007B0880000F
:100920000F307605FC003030FC0783137A188317EC
:10093000790884007C0880007308F6001C23740882
:10094000F6001C233A30F6001C236B08F60000303A
:10095000F8007330F7000030FA007430F900760EBA
:100960000F39FB003030FB078313781883177708A3
:1009700084007B0880000F307605FC003030FC07D7
:1009800083137A188317790884007C088000730821
:10099000F6001C237408F6001C231F217A08F500BA
:1009A0007508F6000A30F700E7207B08F3007308AB
:1009B000F600F901F60DF90DF60DF90DF60DF90D2C
:1009C000F830F6057308F800F7010310F80DF70D7D
:1009D0007808F60779080318F70AF707760875020A
:1009E000F4000C30F600402330307307F6001C236F
:1009F00030307407F6001C23DF30F6001C23433030
:100A0000F6001C234130F60040238313323084006B
:100A10006E08F7000310770D8407840A0008F800B9
:100A20008403000884008313781883170008F600F5
:100A30001C238313323084006E08F7000310770DF7
:100A40008407840A0008F8008403000884008313E4
:100A500078188317840A0008F6001C2383133230A9
:100A600084006E08F7000310770D8407840A0008DD
:100A7000F800840300088400831378188317023079
:100A800084070008F6001C232030F6001C236F08A2
:100A9000F6000030F8007330F7000030FA007430D0
:100AA000F900760E0F39FB003030FB0783137818FE
:100AB0008317770884007B0880000F307605FC00E0
:100AC0003030FC0783137A188317790884007C0878
:100AD00080007308F6001C237408F6001C232F30D6
:100AE000F6001C237008F6000030F8007330F700A1
:100AF0000030FA007430F900760E0F39FB00303008
:100B0000FB07831378188317770884007B0880001D
:100B10000F307605FC003030FC0783137A188317FA
:100B2000790884007C0880007308F6001C23740890
:100B3000F6001C232F30F6001C237108F60000304D
:100B4000F8007330F7000030FA007430F900760EC8
:100B50000F39FB003030FB078313781883177708B1
:100B600084007B0880000F307605FC003030FC07E5
:100B700083137A188317790884007C088000323048
:100B8000F6001C233030F6001C237308F6001C23EB
:100B90007408F6001C238518CB2D172C8312031321
:100BA000E101E201B201B3014430C2004930C300A7
:100BB0004D30C400C5010030E3004230B40063088A
:100BC000B5004C30C6005530C7004E30C800C901D2
:100BD0000030E4004630B6006408B7004D30CA006B
:100BE0004130CB005230CC00CD010030E5004A301E
:100BF000B8006508B9004D30CE004530CF00523006
:100C0000D000D1010030E6004E30BA006608BB00CB
:100C10004A30D2004530D3005530D400D5010030E1
:100C2000E7005230BC006708BD005630D6004530A2
:100C3000D7004E30D800D9010030E8005630BE0051
:100C40006808BF005330DA004130DB004D30DC0073
:100C5000DD010030E9005A30C0006908C1000130F0
:100C6000A0000130A1000130A200A301A401A50150
:100C70000130A6000130A7000130A800A901AA0197
:100C8000AB01AC01AD01AE01AF01B001B101EA01B0
:100C90008A110A120F2C8B1E502E0B1D502E26204F
:100CA00083120313600E84005F0E8A005E0E8300C1
:060CB000FF0E7F0E09009B
:02400E00713D02
:00000001FF
