:02000000C82A0C
:080008008C1183161114831200
:100010008C1D07288C11D03093008C1D0D288C115D
:1000200093018C1D11288C118316111583128C1DC0
:1000300016288C118C118316111483128C1D1D2807
:100040008C11D13093008C1D23288C1183169112B2
:100050008312B4010730340203184A28831691151D
:1000600083128C1D30288C118313331883173208A8
:1000700034078400130880003408063A031D422820
:10008000831691168316111683128C1D44288C1129
:10009000B40A2A288316111583128C1D4C288C1142
:1000A00008000C1E5128320899000800831203131F
:1000B0008C1E56281A08AA000800831203138C1EEF
:1000C00064280130AA000800AA010800831603135F
:1000D000071787170C30990026309800903083124C
:1000E00098000800AC018030AD008C11831611140B
:1000F00083128C1D78288C11D03093008C1D7E28A3
:100100008C112C0893008C1D83288C112D089300D2
:100110008C1D88288C118316111583128C1D8D2837
:100120008C110130AC0083132B1883172A0A84002A
:100130000008AD008C118316111483128C1D9D28AC
:100140008C11D03093008C1DA3288C112C089300A7
:100150008C1DA8288C112D0893008C1DAD288C11A6
:100160008316111583128C1DB2288C110230AC003D
:1001700083132B1883172A08840002308407000891
:10018000AD008C118316111483128C1DC4288C11A0
:10019000D03093008C1DCA288C112C0893008C1D24
:1001A000CF288C112D0893008C1DD4288C11831618
:1001B000111583128C1DD9288C110330AC008313C8
:1001C0002B1883172A088400033084070008AD0029
:1001D0008C118316111483128C1DEB288C11D030D6
:1001E00093008C1DF1288C112C0893008C1DF6288F
:1001F0008C112D0893008C1DFB288C118316111572
:1002000083128C1D00298C110430AC0083132B1831
:1002100083172A088400043084070008AD008C117D
:100220008316111483128C1D12298C11D030930067
:100230008C1D18298C112C0893008C1D1D298C11E4
:100240002D0893008C1D22298C1183161115831201
:100250008C1D27298C110530AC0083132B188317B4
:100260002A088400053084070008AD008C1183162D
:10027000111483128C1D39298C11D03093008C1DE0
:100280003F298C112C0893008C1D44298C112D08BA
:1002900093008C1D49298C118316111583128C1D16
:1002A0004E298C110630AC0083132B1883172A08B3
:1002B0008400063084070008AD008C1183161114E9
:1002C00083128C1D60298C11D03093008C1D6629FF
:1002D0008C112C0893008C1D6B298C112D08930018
:1002E0008C1D70298C118316111583128C1D752994
:1002F0008C11AC0183132B1883172A088400000883
:10030000AD008C118316111483128C1D84298C115D
:10031000D03093008C1D8A298C112C0893008C1DE1
:100320008F298C112D0893008C1D94298C11831614
:10033000111583128C1D99298C1108008316031343
:1003400087150716861480309400910109309300B8
:100350002830831294000030B3002A30B200042009
:10036000AA1FD029B101B2018C1183161114831276
:100370008C1DB7298C11D03093008C1DBD298C1198
:10038000310893008C1DC2298C11320893008C1DFA
:10039000C7298C118316111583128C1DCC298C1141
:1003A0000730B1009030B2008C1183161114831203
:1003B0008C1DD7298C11D03093008C1DDD298C1118
:1003C000310893008C1DE2298C11320893008C1D9A
:1003D000E7298C118316111583128C1DEC298C11C1
:1003E00008009E21662086130613831686130613C3
:1003F0008312861CF829AA01861FAA0A2A188617C2
:100400002A1C86135D20AA0803192B2A56202A08C5
:10041000A53A031D2B2AA530B2005120A9010730AF
:10042000290203181D2A562083132230840029082C
:1004300084072A088000A90A0F2A56202A08A0004B
:1004400056202A08A1000030AB002230AA007220FA
:10045000A530B20051200030B3002A30B200042091
:100460002D08B10070303105B300330E0F39B200E2
:100470003030B20751200F303105B2003030B207B2
:1004800051202030B20051202E08B10070303105CB
:10049000B300330E0F39B2003030B20751200F30A5
:1004A0003105B2003030B20751202E30B200512059
:1004B0002F08B10070303105B300330E0F39B20090
:1004C0003030B20751200F303105B2003030B20762
:1004D00051202E30B20051203230B2005120303045
:1004E000B20051203008B10070303105B300330E36
:1004F0000F39B2003030B20751200F303105B20051
:100500003030B20751202030B20051202C08B10009
:1005100070303105B300330E0F39B2003030B207FE
:1005200051200F303105B2003030B20751203A303F
:10053000B20051202B08B10070303105B300330EEA
:100540000F39B2003030B20751200F303105B20000
:100550003030B20751203A30B20051202A08B100A1
:1005600070303105B300330E0F39B2003030B207AE
:1005700051200F303105B2003030B20751200D301C
:10058000B20051200A30B20051208618C52AF8293D
:0E05900083120313A001A1018A110A12F1299E
:02400E00713D02
:00000001FF
