:02000000BE2B15
:08000800FF00030E8312031335
:10001000B2000A0EB300040EB4008A110A12DE2BDD
:10002000C108031D14280800F930FF3E031D1528E0
:100030000000C10B142808003C3083120313810018
:10004000B70A123037020318B70183132030840037
:100050003708840700188714001C87100B1108004C
:100060008C118316111483128C1D33288C11D030FF
:1000700093008C1D39288C1193018C1D3D288C1107
:100080008316111583128C1D42288C118C11831636
:10009000111483128C1D49288C11D13093008C1DB2
:1000A0004F288C11831691128312CB0107304B021B
:1000B000031876288316911583128C1D5C288C11E9
:1000C00083134A18831749084B07840013088000DC
:1000D0004B08063A031D6E288316911683161116D7
:1000E00083128C1D70288C11CB0A5628831611158B
:1000F00083128C1D78288C110800C20803198228ED
:1001000006158328061186100F3086058615F030F7
:100110004105860486110F3086058615410EF0399B
:10012000C300F03043058604861108000C1E962893
:10013000490899000800831203138C1E9B281A0893
:10014000C1000800831203138C1EA9280130C100CE
:100150000800C101080083160313071787170C3026
:10016000990026309800903083129800080083167A
:10017000031305148E309F00413083129F00080046
:100180008312031387108B1208003C308312031371
:1001900081000B118B1620188714201C8710B701C3
:1001A0000800831603138710811281110730810420
:1001B0000800C3018030C4008C118316111483120F
:1001C0008C1DDF288C11D03093008C1DE5288C11FC
:1001D000430893008C1DEA288C11440893008C1D61
:1001E000EF288C118316111583128C1DF4288C11A5
:1001F0000130C300831342188317410A84000008AA
:10020000C4008C118316111483128C1D04298C11C7
:10021000D03093008C1D0A298C11430893008C1D4B
:100220000F298C11440893008C1D14298C118316FE
:10023000111583128C1D19298C110230C3008313F0
:100240004218831741088400023084070008C40064
:100250008C118316111483128C1D2B298C11D03014
:1002600093008C1D31298C11430893008C1D362975
:100270008C11440893008C1D3B298C118316111599
:1002800083128C1D40298C110330C3008313421844
:10029000831741088400033084070008C4008C11D0
:1002A0008316111483128C1D52298C11D0309300A7
:1002B0008C1D58298C11430893008C1D5D298C11CD
:1002C000440893008C1D62298C118316111583122A
:1002D0008C1D67298C110430C300831342188317C7
:1002E00041088400043084070008C4008C11831680
:1002F000111483128C1D79298C11D03093008C1D20
:100300007F298C11430893008C1D84298C1144088B
:1003100093008C1D89298C118316111583128C1D55
:100320008E298C110530C3008313421883174108AE
:100330008400053084070008C4008C118316111452
:1003400083128C1DA0298C11D03093008C1DA629FE
:100350008C11430893008C1DAB298C114408930029
:100360008C1DB0298C118316111583128C1DB52993
:100370008C110630C3008313421883174108840090
:10038000063084070008C4008C11831611148312F0
:100390008C1DC7298C11D03093008C1DCD298C1158
:1003A000430893008C1DD2298C11440893008C1DA6
:1003B000D7298C118316111583128C1DDC298C1101
:1003C000C301831342188317410884000008C40046
:1003D0008C118316111483128C1DEB298C11D030D3
:1003E00093008C1DF1298C11430893008C1DF62974
:1003F0008C11440893008C1DFB298C118316111558
:1004000083128C1D002A8C11080083160313871594
:10041000071685148030940091010930930028302C
:10042000831294000030CA004130C9003020C11F3F
:10043000372AC801C9018C118316111483128C1D2F
:100440001E2A8C11D03093008C1D242A8C11480850
:1004500093008C1D292A8C11490893008C1D2E2A8B
:100460008C118316111583128C1D332A8C110730C1
:10047000C8009030C9008C118316111483128C1D92
:100480003E2A8C11D03093008C1D442A8C114808D0
:1004900093008C1D492A8C11490893008C1D4E2A0B
:1004A0008C118316111583128C1D532A8C11080090
:1004B0008316031387120130860532308312C10080
:1004C000102006118610861306138616061686154A
:1004D000861186150130C10010202C30C100C201E8
:1004E0007D200130C10010202C30C100C2017D20D0
:1004F0000130C10010200C30C100C2017D2001304C
:10050000C10010200130C100C2017D200130C100B6
:1005100010200630C100C2017D200130C100102032
:100520005430C1000130C2007D20061186148615AA
:10053000F0300605C1008611861500008611803056
:100540004105C200C208031D972A6530C100013071
:10055000C2007D20061186148615F0300605C10004
:10056000861186150000861180304105C200C20840
:10057000031DAC2A7330C1000130C2007D2006117A
:1005800086148615F0300605C10086118615000018
:10059000861180304105C200C208031DC12A743093
:1005A000C1000130C2007D20061186148615F0308E
:1005B0000605C100861186150000861180304105B0
:1005C000C200C208031DD62A080083120313C0010B
:1005D000B7200522AB20D12058220B178B17C5203E
:1005E0008716851CF12AA220C10803191C2B9B2009
:1005F0004108A53A031D1C2BA530C9009620BF0158
:1006000007303F0203180E2B9B20831338308400E1
:100610003F08840741088000BF0A002B9B20410847
:10062000B5009B204108B6000030C2003830C10040
:10063000D920A530C90096200030CA004130C90039
:1006400030204408C80070304805CA004A0E0F39EF
:10065000C9003030C90796200F304805C900303036
:10066000C90796202030C90096204508C800703080
:100670004805CA004A0E0F39C9003030C907962014
:100680000F304805C9003030C90796202E30C90008
:1006900096204608C80070304805CA004A0E0F3937
:1006A000C9003030C90796200F304805C9003030E6
:1006B000C90796202E30C90096203230C9009620F6
:1006C0003030C90096204708C80070304805CA007D
:1006D0004A0E0F39C9003030C90796200F3048053F
:1006E000C9003030C90796202030C9009620430841
:1006F000C80070304805CA004A0E0F39C9003030B2
:10070000C90796200F304805C9003030C907962028
:100710003A30C90096204208C80070304805CA0027
:100720004A0E0F39C9003030C90796200F304805EE
:10073000C9003030C90796203A30C90096204108D8
:10074000C80070304805CA004A0E0F39C900303061
:10075000C90796200F304805C9003030C9079620D8
:100760000D30C90096200A30C90096208518B62B96
:10077000C00A40080A3A0319C020F12A8312031361
:10078000B501B6010130A0000130A1000130A20086
:10079000A301A401A5010130A6000130A70001308A
:1007A000A800A901AA01AB01AC01AD01AE01AF01E6
:1007B000B001B101B7018A110A12E52A8B1EE32BA1
:1007C0000B1DE32B1C2083120313340E8400330E05
:0C07D0008A00320E8300FF0E7F0E09002D
:02400E00713D02
:00000001FF
