:020000000D2BC6
:08000800FF00030E8312031335
:10001000B2000A0EB300040EB4008A110A122D2B8E
:100020003C30831203138100B70A123037020318E1
:10003000B701831320308400370884070018871421
:10004000001C87100B1108008C11831611148312E9
:100050008C1D27288C11D03093008C1D2D288C11DD
:1000600093018C1D31288C118316111583128C1D60
:1000700036288C118C118316111483128C1D3D2887
:100080008C11D13093008C1D43288C118316911252
:100090008312CB0107304B0203186A28831691158F
:1000A00083128C1D50288C1183134A18831749081A
:1000B0004B078400130880004B08063A031D622892
:1000C000831691168316111683128C1D64288C11C9
:1000D000CB0A4A288316111583128C1D6C288C11AB
:1000E00008000C1E712849089900080083120313A8
:1000F0008C1E76281A08C1000800831203138C1E78
:1001000084280130C1000800C101080083160313D0
:10011000071787170C30990026309800903083120B
:10012000980008008312031387108B1208003C30DC
:100130008312031381000B118B1620188714201CC7
:100140008710B701080083160313871081128111ED
:10015000073081040800C3018030C4008C1183166D
:10016000111483128C1DB1288C11D03093008C1D7A
:10017000B7288C11430893008C1DBC288C114408AF
:1001800093008C1DC1288C118316111583128C1DB0
:10019000C6288C110130C300831342188317410A0B
:1001A00084000008C4008C118316111483128C1D66
:1001B000D6288C11D03093008C1DDC288C1143087C
:1001C00093008C1DE1288C11440893008C1DE628B7
:1001D0008C118316111583128C1DEB288C110230A3
:1001E000C300831342188317410884000230840738
:1001F0000008C4008C118316111483128C1DFD2875
:100200008C11D03093008C1D03298C11430893006E
:100210008C1D08298C11440893008C1D0D298C110C
:100220008316111583128C1D12298C110330C30003
:1002300083134218831741088400033084070008A1
:10024000C4008C118316111483128C1D24298C1167
:10025000D03093008C1D2A298C11430893008C1DEB
:100260002F298C11440893008C1D34298C1183167E
:10027000111583128C1D39298C110430C30083138E
:100280004218831741088400043084070008C40022
:100290008C118316111483128C1D4B298C11D030B4
:1002A00093008C1D51298C11430893008C1D5629F5
:1002B0008C11440893008C1D5B298C118316111539
:1002C00083128C1D60298C110530C30083134218E2
:1002D000831741088400053084070008C4008C118E
:1002E0008316111483128C1D72298C11D030930047
:1002F0008C1D78298C11430893008C1D7D298C114D
:10030000440893008C1D82298C11831611158312C9
:100310008C1D87298C110630C30083134218831764
:1003200041088400063084070008C4008C1183163D
:10033000111483128C1D99298C11D03093008C1DBF
:100340009F298C11430893008C1DA4298C1144080B
:1003500093008C1DA9298C118316111583128C1DF5
:10036000AE298C11C30183134218831741088400FE
:100370000008C4008C118316111483128C1DBD2932
:100380008C11D03093008C1DC3298C11430893002D
:100390008C1DC8298C11440893008C1DCD298C110B
:1003A0008316111583128C1DD2298C110800831617
:1003B00003138715071686148030940091010930C5
:1003C00093002830831294000030CA004130C900E5
:1003D0002420C11F092AC801C9018C1183161114D8
:1003E00083128C1DF0298C11D03093008C1DF629BE
:1003F0008C11480893008C1DFB298C11490893002F
:100400008C1D002A8C118316111583128C1D052A50
:100410008C110730C8009030C9008C11831611145C
:1004200083128C1D102A8C11D03093008C1D162A3B
:100430008C11480893008C1D1B2A8C1149089300CD
:100440008C1D202A8C118316111583128C1D252AD0
:100450008C11080083120313C001D7218620A3202A
:100460000B178B1783128613061383168613061336
:100470009720861C392AC101861FC10A4118861798
:10048000411C86137D20C10803196B2A7620410880
:10049000A53A031D6B2AA530C9007120BF010730A2
:1004A0003F0203185D2A76208313383084003F080A
:1004B000840741088000BF0A4F2A76204108B50012
:1004C00076204108B6000030C2003830C100AB20B1
:1004D000A530C90071200030CA004130C900242075
:1004E0004408C80070304805CA004A0E0F39C900D8
:1004F0003030C90771200F304805C9003030C907B6
:1005000071202030C90071204508C80070304805AE
:10051000CA004A0E0F39C9003030C90771200F30A8
:100520004805C9003030C90771202E30C90071203C
:100530004608C80070304805CA004A0E0F39C90085
:100540003030C90771200F304805C9003030C90765
:1005500071202E30C90071203230C9007120303036
:10056000C90071204708C80070304805CA004A0E0B
:100570000F39C9003030C90771200F304805C90054
:100580003030C90771202030C90071204308C800ED
:1005900070304805CA004A0E0F39C9003030C9070B
:1005A00071200F304805C9003030C90771203A303A
:1005B000C90071204208C80070304805CA004A0EC0
:1005C0000F39C9003030C90771200F304805C90004
:1005D0003030C90771203A30C90071204108C80085
:1005E00070304805CA004A0E0F39C9003030C907BB
:1005F00071200F304805C9003030C90771200D3017
:10060000C90071200A30C90071208618052BC00A64
:1006100040080A3A03199220392A83120313B501BC
:10062000B6010130A0000130A1000130A200A301F9
:10063000A401A5010130A6000130A7000130A800E7
:10064000A901AA01AB01AC01AD01AE01AF01B0013E
:10065000B101B7018A110A122A2A8B1E322B0B1DF7
:10066000322B102083120313340E8400330E8A00C1
:0A067000320E8300FF0E7F0E09001A
:02400E00713D02
:00000001FF
