:02000000C82D09
:08000800FF00030E8312031335
:10001000DE000A0EDF00040EE0008A110A12442EF0
:10002000F708031D14280800F930FF3E031D1528AA
:100030000000F70B142808008312031387108B129B
:10004000080083120313071927281C2037283C3087
:100050008100E90A123069020318E9018313203094
:1000600084006908840700188714001C87100B118E
:10007000080083120313E10A0C306102031C4528B7
:100080008712101083160C104B2810100B308F00A5
:10009000DC308E00101483120C100800831203133E
:1000A00087160B308F00DC308E00101483160C1472
:1000B0008312E1010800B001B101B201B301B40142
:1000C000B01A08002C1C72282808B1072908031848
:1000D000290FB2072A0803182A0FB3072B080318A1
:1000E0002B0FB4070310AF0CAE0CAD0CAC0C03100F
:1000F000A80DA90DAA0DAB0DB00A6028A801A90191
:10010000AA01AB01AE01AF01B001B101AC012030D9
:100110002C05AD00AD08031D08000310AE0DAF0D9A
:10012000B00DB10DFB0DFC0DFD0DFE0DA80DA90DC3
:10013000AA0DAB0D23082B02031DA82822082A02B2
:10014000031DA82821082902031DA8282008280229
:10015000031CB9282008A8022108031C210FA902AA
:100160002208031C220FAA022308031C230FAB0240
:100170002E14AC0A872840307E0203180800831230
:100180008C118316111483128C1DC3288C11D0304E
:1001900093008C1DC9288C117E0893008C1DCE28DD
:1001A0008C1183162008831293008C1DD5288C1186
:1001B0008316111583128C1DDA288C110800831206
:1001C0008C118316111483128C1DE3288C11D030EE
:1001D00093008C1DE9288C1193018C1DED288C1146
:1001E0008316111583128C1DF2288C118C11831625
:1001F000111483128C1DF9288C11D13093008C1DA1
:10020000FF288C1183169112FE0107307E0203181D
:1002100027298316911583128C1D0B298C118313AA
:1002200083162118831720087E0784008312130881
:1002300080007E08063A031D1F2983169116831637
:10024000111683128C1D21298C11FE0A0529831693
:10025000111583128C1D29298C110800F901FC014C
:10026000FA0108307A05FB00FB08031D08000310A3
:10027000FC0DF70DF90D78087902031C4129F900EE
:100280007C14FA0A3129831203130C1E43297708C0
:1002900099000800831203138C1E4A291A08F700DC
:1002A0000800831203138C1E58290130F700080040
:1002B000F701080083160313071787170C309900FE
:1002C00026309800903083129800080083120313A0
:1002D0001F151F196929F7011E08F800F901FA0115
:1002E00083161E08FB00FC01FD01FE017B08F704DC
:1002F0007C08F8047D08F9047E08FA047708A80051
:100300007808A9007908AA007A08AB006430AC002C
:10031000AD01AE01AF015B203108FB003208FC00EB
:100320003308FD003408FE007B08F7007C08F80065
:100330007D08F9007E08FA00F430A8000130A90019
:10034000AA01AB017708AC007808AD007908AE00CF
:100350007A08AF005B203108FB003208FC0033084C
:10036000FD003408FE009C30A0008F30A100013059
:10037000A2000030A3007E202E08A4002F08A500B4
:100380003008A6003108A7002408F7002508F80067
:100390002608F9002708FA007708FB0008008316F2
:1003A000031305148E309F00413083129F00080014
:1003B0003C308312031381000B118B162018871415
:1003C000201C8710E901080083120313871083168D
:1003D00087108112811107308104080040307702B4
:1003E00003180800831203138C118316111483124F
:1003F0008C1DF7298C11D03093008C1DFD298C1198
:10040000770893008C1D022A8C1183161115831214
:100410008C1D072A8C110800FE01803083160313FF
:10042000A000BB200130FE00831378188317770AE1
:10043000840000088316A000BB200230FE00831356
:100440007818831777088400023084070008831621
:10045000A000BB200330FE008313781883177708B1
:1004600084000330840700088316A000BB200430FA
:10047000FE008313781883177708840004308407FC
:1004800000088316A000BB200530FE0083137818F7
:100490008317770884000530840700088316A000BE
:1004A000BB200630FE00831378188317770884007A
:1004B0000630840700088316A000BB20FE018313CA
:1004C000781883177708840000088316A000BB20E3
:1004D0000800831203138C118316111483128C1DD0
:1004E0006E2A8C11D13093008C1D742A8C118316C6
:1004F000911583128C1D792A8C111308F70083162D
:100500009116111683128C1D822A8C1183161115D7
:1005100083128C1D882A8C117708F8000800831636
:100520000313871507168514803094009101093054
:10053000930028308312940000308316A100773096
:10054000A000DF20F71FA82AFE018316A001BB2010
:100550000730FE0090308316A000BB20080077080B
:10056000F8000130F900F9080319BA2A83120313BD
:100570000615BD2A83120313061186100F30860557
:100580008615F0307805860486110F3086058615AD
:10059000780EF039FA00F0307A05860486110000F2
:1005A000000000000000000000000000000000004B
:1005B000000000000000000000000000000000003B
:1005C000000000000000000000000000000000002B
:1005D0000000000000000000000000000000080013
:1005E00077088038F800F901F9080319FB2A83120B
:1005F00003130615FE2A83120313061186100F300B
:1006000086058615F0307805860486110F3086053C
:100610008615780EF039FA00F0307A0586048611D6
:1006200000000000000000000000000000000000CA
:1006300000000000000000000000000000000000BA
:1006400000000000000000000000000000000000AA
:10065000000000000000000000000000000000009A
:100660000800831603138712013086053230F70025
:10067000102083120611861086130613861606169E
:10068000861586110130F70010202C30F700F80194
:10069000F80803194D2B06154E2B061186100F3046
:1006A00086058615F0307705860486110F3086059D
:1006B0008615770EF039F900F03079058604861139
:1006C0000130F70010202C30F700F801F80803196A
:1006D0006B2B06156C2B061186100F3086058615C0
:1006E000F0307705860486110F3086058615770E63
:1006F000F039F900F0307905860486110130F700F1
:1007000010200C30F700F801F8080319892B0615A2
:100710008A2B061186100F3086058615F030770576
:10072000860486110F3086058615770EF039F9009C
:10073000F0307905860486110130F7001020013071
:10074000F700F801F8080319A72B0615A82B0611C6
:1007500086100F3086058615F030770586048611E1
:100760000F3086058615770EF039F900F0307905DF
:10077000860486110130F70010200630F700F801DA
:10078000F8080319C52B0615C62B061186100F3065
:1007900086058615F0307705860486110F308605AC
:1007A0008615770EF039F900F03079058604861148
:1007B0000130F7001020303090000800831603133A
:1007C0000614071501170B160800CF218F225A2196
:1007D000E4213123DE230B178B170830F700EE21BD
:1007E00069227808F50069227808F600851CF62B46
:1007F0005121F70803192D2C4A217708A53A031D2A
:100800002D2CA530F7004321F101073071020318A8
:10081000132C4A2183136A308400710884077708F7
:100820008000F10A052C4A217708F5004A21770853
:10083000F6000030F8006A30F7000C220830FE00A5
:1008400075088316A000BB200930FE0076088316C9
:10085000A000BB20A530F700432100308316A10083
:100860006A30A000DF206C08F7000030F900723019
:10087000F8000030FB007330FA00770E0F39FC00EF
:100880003030FC07831379188317780884007C08BC
:1008900080000F307705FD003030FD0783137B1893
:1008A00083177A0884007D0880007208303A031D9F
:1008B0005B2C2030F200F701F0227208F700AF2223
:1008C0007308F700AF223A30F700AF226B08F70049
:1008D0000030F9007230F8000030FB007330FA008D
:1008E000770E0F39FC003030FC078313791883171B
:1008F000780884007C0880000F307705FD003030D8
:10090000FD0783137B1883177A0884007D08800015
:100910007208F700AF227308F700AF223A30F700F1
:10092000AF226A08F7000030F9007230F80000309A
:10093000FB007330FA00770E0F39FC003030FC07F3
:10094000831379188317780884007C0880000F309F
:100950007705FD003030FD0783137B1883177A0875
:1009600084007D0880007208F700AF227308F7004A
:10097000AF2266217B08F4007408F7000A30F80003
:100980002E217C08F2007208F700FA01F70DFA0D2B
:10099000F70DFA0DF70DFA0DF830F7057208F900AA
:1009A000F8010310F90DF80D7908F7077A08031814
:1009B000F80AF80777087402F3000C30F700F02209
:1009C00030307207F700AF2230307307F700AF22E4
:1009D000DF30F700AF224330F700AF224130F7009D
:1009E000F0228313323084006D08F8000310780D74
:1009F0008407840A0008F900840300088400831334
:100A0000791883170008F700AF228313323084006F
:100A10006D08F8000310780D8407840A0008F900B7
:100A2000840300088400831379188317840A00085C
:100A3000F700AF228313323084006D08F8000310F2
:100A4000780D8407840A0008F900840300088400F4
:100A5000831379188317023084070008F700AF2248
:100A60002030F700AF226E08F7000030F900723036
:100A7000F8000030FB007330FA00770E0F39FC00ED
:100A80003030FC07831379188317780884007C08BA
:100A900080000F307705FD003030FD0783137B1891
:100AA00083177A0884007D0880007208F700AF225F
:100AB0007308F700AF222F30F700AF226F08F7005E
:100AC0000030F9007230F8000030FB007330FA009B
:100AD000770E0F39FC003030FC0783137918831729
:100AE000780884007C0880000F307705FD003030E6
:100AF000FD0783137B1883177A0884007D08800024
:100B00007208F700AF227308F700AF222F30F7000A
:100B1000AF227008F7000030F9007230F8000030A2
:100B2000FB007330FA00770E0F39FC003030FC0701
:100B3000831379188317780884007C0880000F30AD
:100B40007705FD003030FD0783137B1883177A0883
:100B500084007D0880003230F700AF223030F7008B
:100B6000AF227208F700AF227308F700AF22071D0B
:100B7000C52D75086C06031DC52D76086B06031D73
:100B8000C52DEA08031DC52DD8218518C52DF62BC6
:100B900083120313E101B201B3014430C2004930B2
:100BA000C3004D30C400C5010030E2004230B40043
:100BB0006208B5004C30C6005530C7004E30C80042
:100BC000C9010030E3004630B6006308B7004D307D
:100BD000CA004130CB005230CC00CD010030E400DF
:100BE0004A30B8006408B9004D30CE004530CF001F
:100BF0005230D000D1010030E5004E30BA00650817
:100C0000BB004A30D2004530D3005530D400D50166
:100C10000030E6005230BC006608BD005630D600F9
:100C20004530D7004E30D800D9010030E7005630AB
:100C3000BE006708BF005330DA004130DB004D30A2
:100C4000DC00DD010030E8005A30C0006808C10057
:100C50000130A0000130A1000130A200A301A401D5
:100C6000A5010130A6000130A7000130A800A901AC
:100C7000AA01AB01AC01AD01AE01AF01B001B10100
:100C8000E9018A110A12E52B8B1E492E0B1D492EF4
:100C900021208B1C4E2E1C204E208B1083160313FC
:100CA0000C1C562E83120C1C562E39208312600EFB
:100CB00084005F0E8A005E0E8300FF0E7F0E090027
:02400E00713D02
:00000001FF
