:02000000D12805
:080008000C1E042828089900D1
:100010000800831603138715071686108030940096
:100020009101093093002830831294000730A80012
:100030009030A9008C118316111483128C1D1D2879
:100040008C11D03093008C1D23288C11280893002C
:100050008C1D28288C11290893008C1D2D288C11AB
:100060008316111583128C1D32288C1108008C11F7
:100070008316111483128C1D3A288C11D0309300F2
:100080008C1D40288C1193018C1D44288C118316E3
:10009000111583128C1D49288C118C118316111493
:1000A00083128C1D50288C11D13093008C1D562842
:1000B0008C11831691128312AA0107302A020318A9
:1000C0007D288316911583128C1D63288C11831350
:1000D0002918831728082A078400130880002A0893
:1000E000063A031D7528831691168316111683127E
:1000F0008C1D77288C11AA0A5D288316111583128E
:100100008C1D7F288C11080009208316071787177C
:100110000C30990026309800903083129800861396
:1001200006133F30831686008312861C9428A8018C
:10013000861FA80A28188617281C86130030A900D5
:100140002030A80037202108A70070302705A9001B
:10015000290E0F39A8003030A80704200F302705DA
:10016000A8003030A80704203A30A8000420200856
:10017000A70070302705A900290E0F39A8003030DC
:10018000A80704200F302705A8003030A807042056
:100190000D30A80004200A30A80004208618CE28BC
:0801A00094288A110A12842838
:02400E00713D02
:00000001FF
