:020000000F2EC1
:08000800FF00030E8312031335
:10001000DE000A0EDF00040EE0008A110A128D2EA7
:100020000330F807F80CF80C7F30F8050000F80BE7
:1000300016280800F708031D1E280800F930FF3EA7
:10004000031D1F280000F70B1E280800831203134E
:1000500087108B12080083120313071931282620FA
:1000600041283C308100EB0A12306B020318EB018F
:100070008313203084006B08840700188714001C49
:1000800087100B11080083120313E10A0C30610280
:10009000031C4F288712101083160C1055281010BF
:1000A0000B308F00DC308E00101483120C1008000F
:1000B0008312031387160B308F00DC308E00101470
:1000C00083160C148312E1010800B001B101B201E2
:1000D000B301B401B01A08002C1C7C282808B10711
:1000E00029080318290FB2072A0803182A0FB30793
:1000F0002B0803182B0FB4070310AF0CAE0CAD0C7C
:10010000AC0C0310A80DA90DAA0DAB0DB00A6A28FE
:10011000A801A901AA01AB01AE01AF01B001B10173
:10012000AC0120302C05AD00AD08031D0800031004
:10013000AE0DAF0DB00DB10DFB0DFC0DFD0DFE0DA7
:10014000A80DA90DAA0DAB0D23082B02031DB22883
:1001500022082A02031DB22821082902031DB22801
:1001600020082802031CC3282008A8022108031C19
:10017000210FA9022208031C220FAA022308031C34
:10018000230FAB022E14AC0A912883128C11831614
:10019000111483128C1DC9288C11D03093008C1D32
:1001A000CF288C1193018C1DD3288C118316111527
:1001B00083128C1DD8288C118C1183161114831274
:1001C0008C1DDF288C11D13093008C1DE5288C11FB
:1001D00083169112FE0107307E0203180D29831643
:1001E000911583128C1DF1288C118313831621180D
:1001F000831720087E0784008312130880007E087E
:10020000063A031D052983169116831611168312CB
:100210008C1D07298C11FE0AEB28831611158312F9
:100220008C1D0F298C110800F901FC01FA0108301E
:100230007A05FB00FB08031D08000310FC0DF70DF9
:10024000F90D78087902031C2729F9007C14FA0AB1
:100250001729831203130C1E292977089900080017
:10026000831203138C1E30291A08F700080083122A
:1002700003138C1E3E290130F7000800F701080027
:1002800083160313071787170C3099002630980040
:100290009030831298000800831203131F151F1952
:1002A0004F29F7011E08F800F901FA0183161E080C
:1002B000FB00FC01FD01FE017B08F7047C08F8044B
:1002C0007D08F9047E08FA047708A8007808A900D8
:1002D0007908AA007A08AB006430AC00AD01AE0129
:1002E000AF0165203108FB003208FC003308FD0037
:1002F0003408FE007B08F7007C08F8007D08F90050
:100300007E08FA00F430A8000130A900AA01AB0170
:100310007708AC007808AD007908AE007A08AF0025
:1003200065203108FB003208FC003308FD0034086A
:10033000FE009C30A0008F30A1000130A2000030F0
:10034000A30088202E08A4002F08A5003008A600CE
:100350003108A7002408F7002508F8002608F9004E
:100360002708FA007708FB0008008316031305141A
:100370008E309F00413083129F00080083120313C8
:1003800087108316871081128111073081040800BD
:10039000F9018030FA00831203138C1183161114B3
:1003A00083128C1DD0298C11D03093008C1DD6293E
:1003B0008C11790893008C1DDB298C117A0893002D
:1003C0008C1DE0298C118316111583128C1DE529D3
:1003D0008C110130F900831378188317770A840091
:1003E0000008FA008C118316111483128C1DF52954
:1003F0008C11D03093008C1DFB298C11790893004F
:100400008C1D002A8C117A0893008C1D052A8C11F2
:100410008316111583128C1D0A2A8C110230F900E3
:100420008313781883177708840002308407000844
:10043000FA008C118316111483128C1D1C2A8C1146
:10044000D03093008C1D222A8C11790893008C1DCA
:10045000272A8C117A0893008C1D2C2A8C11831664
:10046000111583128C1D312A8C110330F90083136E
:100470007818831777088400033084070008FA008F
:100480008C118316111483128C1D432A8C11D030C9
:1004900093008C1D492A8C11790893008C1D4E2ADB
:1004A0008C117A0893008C1D532A8C118316111518
:1004B00083128C1D582A8C110430F900831378188C
:1004C000831777088400043084070008FA008C1131
:1004D0008316111483128C1D6A2A8C11D03093005C
:1004E0008C1D702A8C11790893008C1D752A8C1133
:1004F0007A0893008C1D7A2A8C11831611158312A9
:100500008C1D7F2A8C110530F9008313781883170E
:1005100077088400053084070008FA008C118316E0
:10052000111483128C1D912A8C11D03093008C1DD4
:10053000972A8C11790893008C1D9C2A8C117A08BB
:1005400093008C1DA12A8C118316111583128C1D0A
:10055000A62A8C110630F9008313781883177708C0
:100560008400063084070008FA008C1183161114E9
:1005700083128C1DB82A8C11D03093008C1DBE2A9A
:100580008C11790893008C1DC32A8C117A08930072
:100590008C1DC82A8C118316111583128C1DCD2A2F
:1005A0008C11F901831378188317770884000008E9
:1005B000FA008C118316111483128C1DDC2A8C1105
:1005C000D03093008C1DE22A8C11790893008C1D89
:1005D000E72A8C117A0893008C1DEC2A8C11831663
:1005E000111583128C1DF12A8C1108008316031338
:1005F0008715071685148030940091010930930007
:1006000028308312940000308316A1007730A000B8
:10061000C520F71F2D2BFE018316A00183128C111C
:100620008316111483128C1D122B8C11D030930061
:100630008C1D182B8C117E0893008C1D1D2B8C118A
:1006400083162008831293008C1D242B8C11831693
:10065000111583128C1D292B8C110730FE00903050
:100660008316A00083128C118316111483128C1D23
:10067000362B8C11D03093008C1D3C2B8C117E08B6
:1006800093008C1D412B8C1183162008831293003C
:100690008C1D482B8C118316111583128C1D4D2B2C
:1006A0008C1108007708F8000130F900F9080319E7
:1006B0005D2B831203130615602B8312031306119F
:1006C00086100F3086058615F03078058604861171
:1006D0000F3086058615780EF039FA00F0307A056D
:1006E000860486114030F800102008007708803812
:1006F000F800F901F9080319812B83120313061579
:10070000842B83120313061186100F30860586157D
:10071000F0307805860486110F3086058615780E30
:10072000F039FA00F0307A05860486114030F8007E
:10073000102008008316031387120130860532301B
:10074000F7001A20831206118610861306138616E8
:100750000616861586110130F7001A202C30F70096
:10076000F801F8080319B62B0615B72B06118610E9
:100770000F3086058615F0307705860486110F3018
:1007800086058615770EF039F900F0307905860474
:1007900086110130F7001A202C30F700F801F80814
:1007A0000319D42B0615D52B061186100F3086059C
:1007B0008615F0307705860486110F30860586157C
:1007C000770EF039F900F030790586048611013092
:1007D000F7001A200C30F700F801F8080319F22B83
:1007E0000615F32B061186100F3086058615F0309E
:1007F0007705860486110F3086058615770EF03949
:10080000F900F0307905860486110130F7001A20CE
:100810000130F700F801F8080319102C0615112C07
:10082000061186100F3086058615F0307705860490
:1008300086110F3086058615770EF039F900F030F5
:100840007905860486110130F7001A200630F7007A
:10085000F801F80803192E2C06152F2C0611861006
:100860000F3086058615F0307705860486110F3027
:1008700086058615770EF039F900F0307905860483
:1008800086110130F7001A203030900008008316DE
:1008900003130614071501170B160800B521F622DD
:1008A0004021BE219A2347240B178B178312851CE6
:1008B000562C3721F7080319822C30217708A53AE6
:1008C000031D822CA530F7002921F30107307302A4
:1008D0000318742C302183136C3084007308840750
:1008E00077088000F30A662C30217708E200302177
:1008F0007708E3000030F8006C30F700C821A5301D
:10090000F700292100308316A1006C30A000C5201B
:100910006E08F7000030F9007430F8000030FB007A
:100920007530FA00770E0F39FC003030FC07831366
:1009300079188317780884007C0880000F307705C9
:10094000FD003030FD0783137B1883177A0884007D
:100950007D0880007408303A031DB02C2030F4006C
:10096000F70176237408F70052237508F700522325
:100970003A30F70052236D08F7000030F900743068
:10098000F8000030FB007530FA00770E0F39FC00DC
:100990003030FC07831379188317780884007C08AB
:1009A00080000F307705FD003030FD0783137B1882
:1009B00083177A0884007D0880007408F7005223AA
:1009C0007508F70052233A30F70052236C08F700FD
:1009D0000030F9007430F8000030FB007530FA0088
:1009E000770E0F39FC003030FC078313791883171A
:1009F000780884007C0880000F307705FD003030D7
:100A0000FD0783137B1883177A0884007D08800014
:100A10007408F70052237508F70052234C217B0815
:100A2000F6007608F7000A30F80014217C08F4007C
:100A30007408F700FA01F70DFA0DF70DFA0DF70D2E
:100A4000FA0DF830F7057408F900F8010310F90DF4
:100A5000F80D7908F7077A080318F80AF8077708F5
:100A60007602F5000C30F700762330307407F7007B
:100A7000522330307507F7005223DF30F70052233E
:100A80004330F70052234130F7007623831332308E
:100A900084006F08F8000310780D8407840A0008AA
:100AA000F900840300088400831379188317000871
:100AB000F70052238313323084006F08F8000310CC
:100AC000780D8407840A0008F90084030008840074
:100AD000831379188317840A0008F70052238313BD
:100AE000323084006F08F8000310780D8407840A00
:100AF0000008F90084030008840083137918831721
:100B0000023084070008F70052232030F7005223F8
:100B10007008F7000030F9007430F8000030FB0076
:100B20007530FA00770E0F39FC003030FC07831364
:100B300079188317780884007C0880000F307705C7
:100B4000FD003030FD0783137B1883177A0884007B
:100B50007D0880007408F70052237508F7005223BF
:100B60002F30F70052237108F7000030F90074307D
:100B7000F8000030FB007530FA00770E0F39FC00EA
:100B80003030FC07831379188317780884007C08B9
:100B900080000F307705FD003030FD0783137B1890
:100BA00083177A0884007D0880007408F7005223B8
:100BB0007508F70052232F30F70052237208F70010
:100BC0000030F9007430F8000030FB007530FA0096
:100BD000770E0F39FC003030FC0783137918831728
:100BE000780884007C0880000F307705FD003030E5
:100BF000FD0783137B1883177A0884007D08800023
:100C00003230F70052233030F70052237408F700D7
:100C100052237508F700522385180C2E562C831288
:100C20000313E101E201E301B201B3014430C20068
:100C30004930C3004D30C400C5010030E4004230EB
:100C4000B4006408B5004C30C6005530C7004E30C3
:100C5000C800C9010030E5004630B6006508B7009D
:100C60004D30CA004130CB005230CC00CD010030B5
:100C7000E6004A30B8006608B9004D30CE00453075
:100C8000CF005230D000D1010030E7004E30BA0022
:100C90006708BB004A30D2004530D3005530D4003D
:100CA000D5010030E8005230BC006808BD00563065
:100CB000D6004530D7004E30D800D9010030E900C9
:100CC0005630BE006908BF005330DA004130DB0007
:100CD0004D30DC00DD010030EA005A30C0006A0807
:100CE000C1000130A0000130A1000130A200A30129
:100CF000A401A5010130A6000130A7000130A80021
:100D0000A901AA01AB01AC01AD01AE01AF01B00177
:100D1000B101EB018A110A124E2C8B1E922E0B1D73
:100D2000922E2B208B1C972E262058208B1083165A
:100D300003130C1C9F2E83120C1C9F2E4320831226
:100D4000600E84005F0E8A005E0E8300FF0E7F0E31
:020D5000090098
:02400E00713D02
:00000001FF
